:020000040800F2
:100000000000022009460008E1230008E32300085D
:10001000E5230008E7230008E923000800000000AA
:10002000000000000000000000000000EB230008BA
:10003000ED23000800000000EF230008F123000872
:100040005946000859460008594600085946000814
:100050005946000859460008594600085946000804
:1000600059460008594600085946000859460008F4
:1000700059460008594600085946000859460008E4
:1000800059460008594600085946000859460008D4
:1000900059460008594600085946000859460008C4
:1000A00059460008594600085946000859460008B4
:1000B00059460008594600085946000859460008A4
:1000C0005946000859460008594600085946000894
:1000D0005946000859460008594600085946000884
:1000E000F9230008594600085946000859460008F7
:1000F0005946000859460008594600085946000864
:100100005946000859460008594600085946000853
:100110005946000859460008594600085946000843
:100120005946000859460008594600085946000833
:100130005946000859460008594600085946000823
:100140005946000859460008594600085946000813
:100150005946000859460008594600085946000803
:1001600059460008594600085946000859460008F3
:1001700059460008594600085946000859460008E3
:1001800059460008594600085946000859460008D3
:10019000594600080000000059460008594600086A
:1001A00059460008594600085946000859460008B3
:1001B00059460008594600085946000859460008A3
:1001C0005946000859460008594600085946000893
:0801D0005946000859460008D9
:1001D8000348044B834202D0034B03B118477047CE
:1001E8004C0800204C080020000000000548064983
:1001F800091A891001EBD171491002D0034B03B1E0
:10020800184770474C0800204C08002000000000E8
:1002180010B5064C237843B9FFF7DAFF044B13B146
:100228000448AFF300800123237010BD4C08002060
:10023800000000007046000808B5044B1BB10449D3
:100248000448AFF30080BDE80840CFE70000000095
:100258005008002070460008002301461A46184638
:1002680000F088B838B50A4C0A4D641BA4100AD0AF
:1002780004F18043013B05EB8305013C55F8043943
:100288009847002CF9D1BDE8384004F0F3B900BF15
:10029800504900084C49000870B50D4E0D4D761BAD
:1002A800B61006D00024013455F8043B9847A642FE
:1002B800F9D1094E094D761B04F0D6F9B61006D0CF
:1002C8000024013455F8043B9847A642F9D170BD83
:1002D80044490008444900084C49000844490008BA
:1002E800F0B4860743D0541E002A3ED0CAB2034653
:1002F80002E014F1FF3438D303F8012B9D07F8D13D
:10030800032C2BD9CDB245EA05250F2C45EA054526
:1003180016D9A4F110073F0903F1200606EB0716CA
:1003280003F1100242E9045542E902551032B24283
:10033800F8D104F00F040137032C03EB07130DD990
:100348001E462246043A032A46F8045BFAD8221FBE
:1003580022F003020432134404F003042CB1C9B29E
:100368001C4403F8011B9C42FBD1F0BC70471446A7
:100378000346C5E7F0B4184C2568D5F8484114B3CE
:1003880065681F2D24DC38B9AB1C0135656044F85D
:1003980023100020F0BC704704EB85060127C6F83F
:1003A800882007FA05F2D4F88871022847EA02077C
:1003B800C4F88871C6F80831E6D1D4F88C311A43EC
:1003C800C4F88C21E0E705F5A674C5F84841D7E7DD
:1003D8004FF0FF30DEE700BF98460008FEE700BF99
:1003E80053B94AB9002908BF00281CBF4FF0FF3194
:1003F8004FF0FF3001F0F8B8ADF1080C6DE904CE0C
:1004080000F006F8DDF804E0DDE9022304B07047E7
:100418002DE9F047089E04468846002B4BD18A42B6
:10042800154667D9B2FA82F24AB1C2F1200701FA39
:1004380002F320FA07F7954047EA030894404FEA89
:10044800154E230CB8FBFEF71FFA85FC0EFB178828
:1004580043EA084307FB0CF1994209D9EB1807F165
:10046800FF3080F01B81994240F21881023F2B44F3
:100478005B1AA4B2B3FBFEF00EFB103344EA03444C
:1004880000FB0CFCA44509D92C1900F1FF3380F0BE
:100498000781A44540F2048102382C4440EA074011
:1004A800A4EB0C0400271EB1D4400023C6E9004386
:1004B8003946BDE8F0878B4209D9002E00F0EB8061
:1004C8000027C6E9000138463946BDE8F087B3FA87
:1004D80083F7002F47D18B4202D3824200F2FA8081
:1004E800841A61EB030301209846002EE0D0C6E988
:1004F8000048DDE702B9FFDEB2FA82F2002A40F0D6
:100508008F80491B4FEA154E1FFA85F80127B1FB6A
:10051800FEFC230C0EFB1C1143EA014308FB0CF103
:10052800994207D9EB180CF1FF3002D2994200F238
:10053800CD808446591AA3B2B1FBFEF00EFB10140D
:1005480043EA044408FB00F8A04507D92C1900F138
:10055800FF3302D2A04500F2B6801846A4EB080487
:1005680040EA0C409FE7C7F1200CBB4022FA0CFE82
:100578004EEA030E01FA07F420FA0CF521FA0CF3FF
:100588004FEA1E482543B3FBF8F92C0C08FB193336
:100598001FFA8EFA44EA034309FB0AF49C4202FA62
:1005A80007F200FA07F10BD91EEB030309F1FF303C
:1005B80080F087809C4240F28480A9F1020973444C
:1005C8001B1BADB2B3FBF8F008FB103345EA03443C
:1005D80000FB0AFAA24508D91EEB040400F1FF3318
:1005E8006BD2A24569D90238744440EA0940A0FB9D
:1005F8000289A4EB0A044C45C2464B4654D351D059
:10060800002E69D0B1EB0A0564EB030404FA0CFC74
:10061800FD40FC404CEA0505C6E90054002747E7C1
:10062800C2F1200320FA03F7954001FA02F021FAFB
:1006380003F34FEA154E3843010CB3FBFEF71FFADC
:1006480085F80EFB173341EA034107FB08F38B4299
:1006580004FA02F407D9691807F1FF3C2FD28B423C
:100668002DD9023F2944CB1A81B2B3FBFEF00EFB11
:10067800103341EA034100FB08F38B4207D969189C
:1006880000F1FF3C17D28B4215D902382944C91A08
:1006980040EA07473BE73746304609E70746E7E6BB
:1006A8001846FBE64145ABD2B8EB020A69EB0E02ED
:1006B80001381346A4E76046E9E7184695E7674618
:1006C800D1E781467CE702382C4447E7ACF1020CBD
:1006D8002B442FE7384608E73746E9E603685A000F
:1006E8004CBF43F0004323F000431844704700BF59
:1006F80061B32DE9F84F01F1FF3A90460646D1461D
:10070800002707EB090404EBD4746410E5007119A1
:100718000846FFF7E3FFA245834605F10800304489
:1007280009D0FFF7DBFFC34500F1FF3005D840458E
:1007380009D2671CE5E7C34505D9A74202D004F1F1
:10074800FF39DEE700210846BDE8F88F0846704704
:10075800012807D0022807D0044B00280CBF1846F0
:10076800002070470248704702487047450E00084D
:10077800490E00084D0E000830B5254B83B00446DD
:100788008D1E4BB301A92846AFF30080F0B1019943
:100798002A46FFF7ADFF0146C0B1FFF79FFF4B6840
:1007A800A064012B2ED0002B01F1040026DBFFF7FB
:1007B80095FF0023C4E913030368002B12DBFFF73E
:1007C8008DFF00232061184603B030BD002323614C
:1007D8000923184603B030BD0E490F48091AC9103D
:1007E8000191D5E7C3F30360FFF7B2FF002814BFF8
:1007F800002309232061184603B030BD0123C4E952
:100808001303D9E7002323610523184603B030BD3D
:1008180000000000444900087C4800080368DA0723
:1008280010B5044606D49B0700F1480009D500F02E
:100838005FFC2368590709D51A070ED5DB0613D5BF
:1008480010BD00F04DFC23685907F5D404F1D00021
:1008580000F056FC23681A07F0D404F5A87000F0DD
:1008680057FC2368DB06EBD404F5E870BDE81040BC
:1008780000F092BC036803B103441846704700BFF8
:1008880009207047704700BF70B504460D4608E060
:100898002B6C63612A462369214601209847082862
:1008A80008D1296C2046FFF767FF06460028EFD0DD
:1008B80000F09CFE0728FBD13046296CFFF7E2FFC9
:1008C800281D00F001FC00BF2DE9F0470C1D05466E
:1008D80017460FCCADF5727D03AE0FC60FCC0FC611
:1008E8000FCC0FC694E80F0002ACD5F80C80D5F8F1
:1008F800189086E80F000023236021E0236C6B61C9
:100908004FF4F07221467AA800F078FE2B697AAA93
:10091800294630469847889BCDE90049824663645A
:1009280031462B462A460120C0470746F8B94FF4FE
:10093800F0727AA9204600F061FEBAF1080F1CD1C6
:10094800216C2846FFF718FF002F08BF0926074625
:1009580018BF0A260028D1D0A36B46F01001CDE9B4
:1009680000492A46636401202B46C04700B1092785
:1009780038460DF5727DBDE8F087BAF1070FF6D15C
:100988003846216CFFF77EFF03A800F09DFB00BFEF
:10099800406C7047F0B5CB6B0B640D1D0F460646D7
:1009A8000FCDF9B001AC0FC40FCD0FC40FCD0FC4DC
:1009B80095E80F004FF0FF3584E80F00009506E03A
:1009C80033696A46314698470828044608D1109981
:1009D8003046FFF7D1FE0028F2D0092079B0F0BDEB
:1009E8006846FFF71BFF062CF7D139463046FFF75C
:1009F8004BFF00BF30B4DD6BC160826119461D64D6
:100A0800002230BC60E700BF70B5C66843690B645C
:100A1800BEB903690A4604460D46014602209847B6
:100A2800072807D0082803D129462046FFF72CFFBE
:100A380000F0DCFD3046296CFFF724FF281D00F08C
:100A480043FB0122FFF740FF00F0D0FDC2681AB156
:100A5800CA6B0A64002237E79CE700BF704700BFF3
:100A6800836813B10146012018477047042907D845
:100A7800DFE801F00308060808000BB90F2A03D9BC
:100A8800022070470120704700EB82021846536825
:100A9800009A1360704700BF10B584B0002303AC00
:100AA8000A4600941946FFF7E1FF039804B010BD09
:100AB800042907D8DFE801F00308060808000BB985
:100AC8000F2A03D9022070470120704700EB8200EB
:100AD800009A126842601846704700BF10B584B08B
:100AE80004AC002344F8042D0A4600941946FFF785
:100AF800DFFF04B010BD00BFF0B5D36B1364151D44
:100B080007460E460FCDADF50F7D17AC0FC40FCDC0
:100B18000FC40FCD0FC495E80F004FF0FF3584E8E0
:100B28000F00169510E016A8FFF7D8FF314616A853
:100B3800B84716AA694678B9049B0820984705283B
:100B480004460AD0092807D026996846FFF714FEFC
:100B58006A460C210028E6D0092416A8FFF75EFE95
:100B680020460DF50F7DF0BD2DE9F04F0D46C96CFF
:100B780089B00C1D164600F0030B0A6806941F4640
:100B8800002B68D0130CD9B212048DF81D30022343
:100B980004EB810405928DF81C302B6DBBF1020F1C
:100BA80008BFAC6B13F0010346D1019300F00803B2
:100BB8000093D4F80090B9F1000F00F0F380022FF1
:100BC80045D0B4F80090B4F802800434AB6C28F037
:100BD800010A0F2130469A44FFF75EFF824534D858
:100BE80029F001035344834294BF002001204FEAB7
:100BF800480808F0020809F0010948EA0908B8F1AC
:100C0800010F3AD031D3B8F1020F1AD1236823F07B
:100C1800004ABBF1000F66D130B1009A002A6CD0AF
:100C2800BAF1000F00F09080002B00DA04340AF1CA
:100C3800010304EB8304BCE7304605A900F046FB3A
:100C480078B1092009B0BDE8F08F0020CFE7D4F8CB
:100C580004800834BAE7120203230592ADF81C3069
:100C68009BE7082009B0BDE8F08FBBF1000F02D068
:100C7800002840F0B48004349BE7BBF1000F18D182
:100C8800A8B1D4E90023991C4FEAD272D9D005F152
:100C980058010133049100F0B580201DFFF7EAFDEB
:100CA80004AB01462846AFF30080002867D108341A
:100CB8007FE70D213046D5F82080FFF7EDFE80450F
:100CC800F5D1AB6A9C42F2D12046FFF707FD0F2110
:100CD80002463046FFF702FF30462A460021FFF75A
:100CE800FDFE0720AEE70D213046D5F82080FFF73E
:100CF800D3FE804532D0236896E7BAF1000F23D09F
:100D080005F1580304F10408CDF808B0DDF80090A7
:100D18000397A3461C4602E05745B94640D04046D3
:100D28000494FFF7A7FD04AB014600222846AFF361
:100D3800008009F1010708F104080028ECD0D1452A
:100D48005C46DDE902B7D6D130460D21FFF7A4FE97
:100D5800049B2862C5E90934062073E7AB6A9C4204
:100D6800C9D104224FF00008A318C5E90AA8C5E9AB
:100D78000C23236843454DDB0123019357E7804645
:100D88000D213046FFF788FEB8F1020F28623ED1E8
:100D98002B46049A43F82C2F6B62AC62062051E76D
:100DA8005C46D1E705A9304600F090FA00287FF4A8
:100DB80048AF019B002B3FF454AF0F213046FFF79B
:100DC8006BFE0E2102463046FFF788FE30461A4A6F
:100DD8000F21FFF783FE072009B0BDE8F08F2046FA
:100DE800FFF77CFC04340746AC632846AFF3008069
:100DF80000283FF426AF30463A460F21FFF76EFE33
:100E080007201FE730460D21FFF746FE2862049BA6
:100E18006B62C2E70AF1010004EB8000FFF75EFC99
:100E28000F2102463046FFF759FE30462A46414612
:100E3800FFF754FE072005E700000000002393E6B3
:100E4800012391E602238FE62DE9F0410546C4B05F
:100E5800042906D8DFE801F04D2B05030900032B10
:100E68005FD0022044B0BDE8F081002BF9D1102AF0
:100E7800F7D82B68DC0600F1F48022AC20460192FA
:100E880000F094F9A86B019A0023012606FA03F1F1
:100E9800114203D0016844F8231004300133042BB5
:100EA800F4D1A863204600F077F90020DAE7012B97
:100EB8004FEA124697B252D0052BD2D106EB07085B
:100EC800B8F1200FCDD80F2E40F29980B846002FE8
:100ED80040F0DB80AA6BAA630F2E40F2BE80B8F107
:100EE800000F02D002A800F00BF9002044B0BDE8C2
:100EF800F081002BB5D1AC6B97B2281D012606FAFC
:100F080003F1394203F1010302D02168016004347E
:100F1800102B00F10400F2D112F40050E5D1AC63BB
:100F2800A0E7160C97B2F319102B9AD82B681A075A
:100F38005DD422AC204600F00DF904EBC601AB6B82
:100F48003FB103EBC702186841F8040B043393421E
:100F5800F9D12046AB6300F0DBF8002082E7F219F4
:100F6800102A3FF67EAF0F2E3FF67BAF2A68D107D7
:100F780008D5284622F0030240F8482B019300F0D8
:100F8800B3F8019B019322AC204600F0ADF8A96BA1
:100F9800019B002F00F095807F0004EBC6044FF002
:100FA8000008043C01EB870251F8040B44F8040FD5
:100FB8009142F9D1B8F1000F0FD002AC102E314692
:100FC80038BF102104EBC101843902EBC80452F880
:100FD800040B41F8040F9442F9D1012B7FF47BAF45
:100FE80022AC0432AA63204600F07AF87DE723F0A9
:100FF80008032B6005F5A87000F0ACF899E7B8F184
:10100800100F2A6843D9D007A8F110080BD5284635
:1010180022F0010242F0020240F8482B019300F04E
:101028006BF82A68019B510725D40F2E04D822A8F3
:10103800019300F061F8019B019302AC204600F097
:1010480063F8C6F110010029AA6B019BB6DD22AC3A
:101058004F0004EBC6041146A3E722A800F048F8A5
:101068003DE723F010032B6005F5E870019200F0CE
:101078009DF8019A01E7284622F0040240F8D02B97
:10108800019300F041F8019BCFE72A68CBE7D0072E
:101098000AD5284622F0010242F0020240F8482B05
:1010A800019300F029F8019B019322AC204600F03F
:1010B80023F8B846A96B019B002F7FF46DAF0A4651
:1010C80009E70A468DE700BF00F1340191E83800CE
:1010D8009C46A6464CF8045D90E8FF0FE54600BD27
:1010E80090EC210B704700BF80EC210B704700BFCC
:1010F80090EC200B704700BF80EC200B704700BFBE
:10110800D0EC200B704700BFC0EC200B704700BF2D
:10111800F0EC0201F0EC0211F0EC0221F0EC0231EB
:10112800F0EC0241F0EC0251F0EC0261F0EC0271DB
:10113800F0EC0281F0EC0291F0EC02A1F0EC02B1CB
:10114800F0EC02C1F0EC02D1F0EC02E1F0EC02F1BB
:10115800704700BFE0EC0201E0EC0211E0EC022174
:10116800E0EC0231E0EC0241E0EC0251E0EC02611B
:10117800E0EC0271E0EC0281E0EC0291E0EC02A10B
:10118800E0EC02B1E0EC02C1E0EC02D1E0EC02E1FB
:10119800E0EC02F1704700BFB0FC0181B0FC0191A6
:1011A800B0FC01A1B0FC01B1704700BFA0FC0181F7
:1011B800A0FC0191A0FC01A1A0FC01B1704700BFF7
:1011C800EC4600B52DE900502DE9FF1F4FF0000354
:1011D8002DE90C0001A9FFF7DDFBDDF840E012B0B6
:1011E800704700BFEC4600B52DE900502DE9FF1F00
:1011F8004FF000032DE90C0001A9FFF705FCDDF80D
:1012080040E012B0704700BFEC4600B52DE9005031
:101218002DE9FF1F4FF000032DE90C0001A9FFF78E
:1012280015FCDDF840E012B0704700BFEC4600B591
:101238002DE900502DE9FF1F4FF000032DE90C00A8
:1012480001ABFFF7D7FBDDF840E012B0704700BFF5
:10125800EC4600B52DE900502DE9FF1F4FF00003C3
:101268002DE90C0001AAFFF747FCDDF840E012B0B9
:10127800704700BF027A82B9437AABB14268013B3A
:1012880010B4437213680321141D01721A024460DA
:1012980002605DF8044B180E70470368013A027249
:1012A8001A020260180E7047B020704700B585B06A
:1012B80003AA0023009219460C22FFF7D7FB0398D4
:1012C80005B05DF804FB00BFF0E700BF2DE9F0436F
:1012D800054685B00E464FF000083046FFF7CAFFB6
:1012E800B028044600F0B180070620D500F0F003CE
:1012F800802B65D0902B36D0A02B78D0B02B47D040
:10130800C02B00F08A8000F0F803D02B0BD100F03E
:101318000702013242F40022052301212846FFF783
:1013280093FD0028D9D0092005B0BDE8F0830DF160
:101338000C09002319468700CDF800900D22284695
:10134800FFF794FBFFB2039BCDF8009004376006CB
:101358004CBFDF1BFF18002319460D2228460397B0
:10136800FFF7A6FBB9E700F00D030D2BDBD003AFA9
:10137800002300F00F02194600972846FFF776FB76
:101388000023009719460D222846FFF791FBA4E792
:10139800B1285FD0B22800F0CC80B3287ED000F00E
:1013A800FC03B42BBFD000F007020132012342F442
:1013B800002219462846FFF747FD00288DD0B2E7DE
:1013C8003046FFF757FF24020443B4F5004FAAD074
:1013D80024010023A2B219462846FFF735FD00284C
:1013E800A1D114F4004F18BF4FF0010875E7C243AC
:1013F80002F007034FF47F621A41010702F47F628B
:101408004FF0000348BF42F4804219462846FFF7D0
:101418001BFD00283FF461AF85E7C62851D0C728D7
:101428005AD000F0F803C02B69D0C82875D0C92855
:101438007FF479AF3046FFF71DFF020300F00F007D
:1014480002F470220130024366E7B8F1000F14D0AD
:10145800002069E73046FFF70DFF00283FF463AF2F
:1014680010F0F0037FF45FAF024619462846FFF7F5
:10147800EBFC00283FF431AF55E703AC43460E229E
:10148800414600942846FFF7F1FA0094284643465F
:101498000F224146FFF70CFB404645E73046FFF771
:1014A800E9FE010300F00F0001F47021421C012342
:1014B8000A4328461946FFF7C7FC00283FF40DAF3A
:1014C80031E73046FFF7D6FE010300F00F0001F4C4
:1014D8007021421C0323EBE73046FFF7CBFE0246A0
:1014E80000283FF420AF10F0F0037FF41CAF042174
:1014F8002846FFF7A9FC00283FF4EFAE13E700F0F9
:101508000F020132032342F4202219462846FFF72E
:101518009BFC00283FF4E1AE05E73046FFF7AAFE42
:1015280000F0F00200F00F031032013343EA0232F8
:10153800F2E600230DF10C090D221946CDF80090B2
:101548002846FFF793FA3046FFF794FE02064FF05D
:1015580002070CD5039B00F07F00B84003443046D7
:101568000393FFF787FE030607F10707F2D4039BEF
:10157800CDF8009000F07F0403F50172BC40002311
:10158800144419460D2228460394FFF791FAA4E65D
:1015980010B5C36C84B05A6803208DF80C00DC7950
:1015A8008DF80D4012020833084601A901920293F2
:1015B800FFF78CFE04B010BD08B5FFF785FE806C00
:1015C80008BD00BF08B5FFF77FFEC06CC37900EB0C
:1015D8008300083008BD00BF08B500F007F800BF59
:1015E80008B5FFF7F9FF00BF704700BF08B5062030
:1015F80000F02AF90120FEF7F1FE00BF844641EA17
:10160800000313F003036DD1403A41D351F8043B72
:1016180040F8043B51F8043B40F8043B51F8043BC4
:1016280040F8043B51F8043B40F8043B51F8043BB4
:1016380040F8043B51F8043B40F8043B51F8043BA4
:1016480040F8043B51F8043B40F8043B51F8043B94
:1016580040F8043B51F8043B40F8043B51F8043B84
:1016680040F8043B51F8043B40F8043B51F8043B74
:1016780040F8043B51F8043B40F8043B51F8043B64
:1016880040F8043B51F8043B40F8043B403ABDD2D3
:10169800303211D351F8043B40F8043B51F8043B75
:1016A80040F8043B51F8043B40F8043B51F8043B34
:1016B80040F8043B103AEDD20C3205D351F8043B04
:1016C80040F8043B043AF9D2043208D0D2071CBFD0
:1016D80011F8013B00F8013B01D30B8803806046F9
:1016E800704700BF082A13D38B078DD010F003036F
:1016F8008AD0C3F10403D21ADB071CBF11F8013BDF
:1017080000F8013B80D331F8023B20F8023B7BE72D
:10171800043AD9D3013A11F8013B00F8013BF9D258
:101728000B7803704B7843708B78837060467047F2
:1017380010B58021044600F0BFF8C4F8DC0240B1BF
:10174800031F00227C3043F8042F8342FBD1002082
:1017580010BD4FF0FF3010BDD0F8DC320BB10020C7
:101768007047E5E71F2970B5054609D8D0F8DC327F
:1017780016460C464BB153F8240043F8246070BD5C
:10178800162202604FF0FF3070BDFFF7D1FF10B98D
:10179800D5F8DC32EFE74FF0FF3070BD1F2938B5C0
:1017A80022D8D0F8DC3205460C466BB153F821201C
:1017B80052B1012A12D0511C12D00025204643F8FC
:1017C80024509047284638BD284600F073F8224632
:1017D80001462846BDE8384000F058B8002038BD1A
:1017E80016230360012038BD162303604FF0FF3035
:1017F80038BD00BF1F2923D838B5D0F8DC320546DC
:101808000C4683B153F8242003EB84034AB1511CDE
:101818000FD0012A12D0002520461D609047284687
:1018280038BD012038BDFFF783FF20B9D5F8DC3279
:10183800E8E7022038BD4FF0FF3038BD032038BD3F
:101848004FF0FF30704700BF024B01461868FFF7A2
:10185800A5BF00BF00000020024B0A4601461868D9
:10186800FFF780BF00000020034B1868D0F8DC3277
:101878000BB1002070475BE700000020024B0146D7
:101888001868FFF7B7BF00BF0000002038B50B4647
:10189800074C0546114618460023236000F022FC39
:1018A800431C00D038BD2368002BFBD02B6038BD0B
:1018B8003009002000F00EBC2DE9F04F01F10B05B6
:1018C800162D83B0064623D8102900F2B98000F0FF
:1018D800A7FA102518230220D24F3B44A3F108028F
:1018E8005C68944200F06F81636823F0030323442B
:1018F800D4E902515A68E96042F001028D6030462D
:101908005A6000F08FFA0834204603B0BDE8F08F23
:1019180035F0070500F19480A94200F2918000F0AB
:101928007FFAB5F5FC7FC0F083816B0A00F08F80E9
:10193800042B00F24F81AB0903F1390003F1380C95
:10194800C300B84F3B44A3F108015C68A14206D12B
:101958000CE0002A80F22681E468A14206D0636880
:1019680023F003035A1B0F2AF3DD60463C69DFF8B6
:10197800B8C2644571D0636823F003035A1B0F2A69
:1019880000F33E81002AC7E904CC80F22F81B3F529
:10199800007F80F06981DB08591C7A6857F831802C
:1019A800C4F808804FF0010E9B100EFA03F307EB02
:1019B800C10E1343AEF10802E2607B6047F8314084
:1019C800C8F80C408210012494409C424BD81C4219
:1019D80006D120F0030064001C4200F10400FAD094
:1019E80007EBC009CE468046DEF80C309E4507D18D
:1019F80022E1002A80F22981DB689E4500F01C81E3
:101A0800596821F003014A1B0F2AF2DDD3E9028E3F
:101A18005C1945F001055D6042F00105C8F80CE06D
:101A28003046CEF80880C7E90444C4E902CC6560B2
:101A38005A50009300F0F6F9009B03F1080463E79D
:101A480000240C232046336003B0BDE8F08F4FF428
:101A5800007340204FF03F0C73E77B68821001242D
:101A680094409C42B3D9BC68636823F00309A94534
:101A780004D3A9EB05030F2B00F38480DFF8ACA196
:101A8800D7F80824DAF80030013205EB030800F033
:101A9800478108F5805808F10F0828F47F6828F076
:101AA8000F084146304600F0BFF9B0F1FF3F8346CA
:101AB80000F0038104EB0900584500F2FC80DAF8D5
:101AC800042008EB0201CAF8041000F05A81D7F884
:101AD800083401331BBFABEB00025218C7F808B437
:101AE800CAF804201BF0070300F03081C3F1080294
:101AF8009344C3F58052D8440832A2EB0802C2F3DB
:101B08000B02114630460193009200F08DF9421CF9
:101B1800DDE9002300F06681DAF80410C7F808B0A0
:101B2800A0EB0B03134443F001031144BC42CBF870
:101B38000430CAF8041014D0B9F10F0F40F23881FC
:101B48006268A9F10C0323F0070302F00102E01810
:101B58001A434FF0050C0F2B6260C0E901CC00F26C
:101B68004681DAF82C30BC689942DAF8303062687D
:101B780088BFCAF82C10994222F0030288BFCAF81D
:101B880030109EE0621943F0010345F001056560DD
:101B98003046BA60536000F045F90834204603B077
:101BA800BDE8F08F2344E1685A68A56842F0010255
:101BB800E96030468D605A6000F034F908342046F8
:101BC80003B0BDE8F08FDC68A34208BF02303FF4E1
:101BD800CDAE89E6142B68D9542B00F2A4802B0BC8
:101BE80003F16F0003F16E0CC300AAE623443046EC
:101BF8005A6842F001025A60083400F013F983E68B
:101C0800611945F0010E42F00105C4F804E03046C0
:101C1800C7E90411C1E902CC4D60E25000F002F9B5
:101C2800083471E6300400203804002068080020D9
:101C3800E80805F108034FE608F1010818F0030F5A
:101C48000EF1080E7FF4D0AE52E019441C464A68E3
:101C5800DB6854F8085F42F001024A603046EB60E6
:101C68009D6000F0DFF84FE65A0A042A35D9142A95
:101C78007FD802F15C01C9005B3207EB010E79588D
:101C8800AEF1080E8E4558D04A6822F003029A42F7
:101C980002D989688E45F7D1D1F80CE07B68C4E990
:101CA800021ECEF80840CC608CE603F15C0003F11C
:101CB8005B0CC30045E6BC427ED0BC68626822F07B
:101CC80003029542A2EB050302D80F2B3FF75AAF48
:101CD800304600F0A7F8002416E69A0902F1390107
:101CE800C9003832C9E7D9F80090994540F0958085
:101CF80010F0030FA9F1080300F1FF30F3D17B685E
:101D080023EA04037B6064009C423FF6ACAE1CB936
:101D1800A9E6640008F104081C42FAD040465FE6D0
:101D280008F11008BDE6B3F5AA7F36D8EB0B03F12E
:101D3800780003F1770CC30003E67B6892104FF03C
:101D4800010808FA02F213437B60A8E7D844C8F1F7
:101D58000002C2F30B02114630460193009200F0D4
:101D680063F8431CDDE900237FF4D6AE40461A46EB
:101D7800D2E6542A27D81A0B02F16F01C9006E3235
:101D88007BE7C0F30B03002B7FF4A1AE09EB08033C
:101D9800BA6843F001035360E3E640F254529342B9
:101DA8001AD8AB0C03F17D0003F17C0CC300C8E525
:101DB8000123CBF804308BE7DAF8042008EB0201A2
:101DC800CAF8041083E6B2F5AA7F18D8DA0B02F134
:101DD8007801C900773250E74FF47E737F204FF0C7
:101DE8007E0CAEE5083B08EB0300002294E604F104
:101DF8000801304600F07AF8DAF80410B1E640F24B
:101E080054518A4205D89A0C02F17D01C9007C32EE
:101E180033E74FF47E717E222FE77B6873E700BFBC
:101E2800704700BF704700BF38B5074C0023054610
:101E38000846236000F05EF9431C00D038BD2368D3
:101E4800002BFBD02B6038BD30090020F8B5244F9B
:101E58000C460646FFF7E4FFBB685D68C4F57E6183
:101E68000F3125F00305294421F47F6121F00F018A
:101E7800A1F58054B4F5805F07DB00213046FFF7F9
:101E8800D3FFBB682B44984204D03046FFF7CAFF03
:101E98000020F8BD61423046FFF7C6FF01300DD083
:101EA800104BBA6819682D1B45F001053046091B0F
:101EB80055601960FFF7B6FF0120F8BD00213046D4
:101EC800FFF7B2FFBA68831A0F2BDEDD064C05490F
:101ED800246843F00103001B53600860D5E700BF86
:101EE800300400206C08002038080020002953D056
:101EF800F8B50C460646FFF793FF54F804CC714F2B
:101F08002CF00101A4F108056B18B8685A689842CA
:101F180022F0030253D01CF0010F5A6003EB0200B9
:101F28003BD154F808CC4068A5EB0C0507F1080E26
:101F3800AC687445614400F0010075D0D5F80CC058
:101F4800C4F80CC0CCF8084060B341F001036B60E2
:101F58006950B1F5007F50D34B0A042B70D88B0918
:101F680003F13904E40003F1380238193B59083801
:101F7800984278D05A6822F003028A4271D99B6845
:101F88009842F7D1C368C5E902039D60C560304631
:101F9800BDE8F840FFF746BF7047406800F0010011
:101FA8000028D2D19868484C1144A04241F001025F
:101FB80062D0DB68C36098606A606950C9E71CF04A
:101FC800010F0A4407D154F8083CED1A1A44D5E920
:101FD8000213CB6099603D4B1B6842F001019342AC
:101FE8006960BD6004D83A4B30461968FFF72EFF88
:101FF8003046BDE8F840FFF715BFC90878684A1CA5
:10200800012389108B40034307EBC20157F83200C4
:102018007B600839C5E9020147F83250C56030468F
:10202800BDE8F840FFF7FEBE002845D10A44D3E9D1
:10203800021342F00100CB6099606860AA50D7E7AC
:10204800142B08D9542B1ED80B0B03F16F04E40092
:1020580003F16E0289E703F15C04E40003F15B021B
:1020680083E718468EE793107968012202FA03F392
:102078000B437B60034686E7C7E90455C5E90200C0
:102088006A606950B4E7B3F5AA7F06D8CB0B03F1B1
:102098007804E40003F1770267E740F25452934270
:1020A80006D88B0C03F17D04E40003F17C025CE7A5
:1020B8004FF47E747E2258E741F001026A6019608D
:1020C80096E700BF30040020380400203C080020B8
:1020D80068080020024B58221A604FF0FF30704702
:1020E80030090020024B58221A604FF0FF30704729
:1020F80030090020044A05491368002B08BF0B4625
:1021080018441060184670479C08002038090020C1
:1021180030B5A9B0382200211AA8FEF7E1F800244A
:1021280015941694179418941994542221466846C5
:10213800FEF7D6F8204602F00DF902231A934FF461
:1021480080721D9240221E9221932293042523958A
:10215800552224922593269327931AA801F010F963
:102168000F2315930323169317941894199429464B
:1021780015A801F065FC202300930694684601F039
:10218800E7FD29B030BD08B501F098F8FFF7C0FFAA
:1021980000F01EF800F0BCF802F01AFA0028FBD094
:1021A800012220214FF0904000F0ACFA4FF49670D5
:1021B80001F0A6F8002220214FF0904000F0A2FA8A
:1021C8004FF4967001F09CF8E6E7704770470000FE
:1021D80070B58CB000240794089409940A940B9461
:1021E800454BDA6C42F00402DA64DA6C02F004025D
:1021F8000192019ADA6C42F02002DA64DA6C02F099
:1022080020020292029ADA6C42F04002DA64DA6C36
:1022180002F040020392039ADA6C42F00102DA6497
:10222800DA6C02F001020492049ADA6C42F00202BB
:10223800DA64DA6C02F002020592059ADA6C42F06E
:102248000802DA64DB6C03F008030693069B224657
:1022580020214FF0904000F055FA4FF400530793B7
:10226800264B08930994264E07A9304600F0E2F859
:102278004FF48063079303250895099407A921481B
:1022880000F0D8F841F6FF7307930895099407A959
:10229800304600F0CFF849F6D373079308950994B0
:1022A80007A94FF0904000F0C5F8202307930123B9
:1022B800089309940A9407A94FF0904000F0BAF8DF
:1022C8004FF6F77307930895099407A90E4800F08D
:1022D800B1F8042307930895099407A90B4800F05F
:1022E800A9F822462146282002F0F0F8282002F01A
:1022F80033F90CB070BD00BF00100240000011108F
:10230800000800480018004800040048000C004875
:1023180008B51648164B03604FF4E13343600023B9
:102328008360C36003610C2242618361036283623C
:1023380000F0EAFD70B900210C4800F0DBFE60B93E
:1023480000210A4800F034FF50B9084800F090FE18
:1023580048B908BDFFF739FFEDE7FFF736FFEFE7AC
:10236800FFF733FFF1E7FFF730FFF2E7A00800209F
:102378000080004000B589B00023039304930593BF
:10238800069307930268134B9A4202D009B05DF88E
:1023980004FB03F5C833DA6D42F00102DA65DA6D41
:1023A80002F001020192019ADA6C42F00102DA6449
:1023B800DB6C03F001030293029B0C2303930222BC
:1023C800049207930DEB03014FF0904000F032F8B0
:1023D800DCE700BF008000407047FEE7FEE7FEE74D
:1023E800FEE770477047704708B500F077FF08BDF3
:1023F80008B54FF4005000F0A1F908BD00B583B04E
:102408000B4B1A6E42F001021A661A6E02F00102B4
:102418000092009A9A6D42F080529A659B6D03F083
:1024280080530193019B02F02BF803B05DF804FB85
:10243800001002402DE9F04383B006460C46B0F187
:10244800904F1AD0A94B984217D003F58063984251
:1024580013D003F5806398420FD003F58063984248
:102468000BD003F58063984207D003F58063984248
:1024780003D0B1219E48FFF7A9FE23689AB212B192
:102488001B0C1B041BB1B2219948FFF79FFE636820
:10249800012B1ED9112B1CD0022B1AD0122B18D0AD
:1024A800944A934215D002F58012934211D002F556
:1024B800801293420DD0A2F5F812934209D002F58A
:1024C8008012934205D002F58012934201D0032B6B
:1024D80004D1A368022B06D800254AE0B32184481A
:1024E800FFF774FEF5E7B4218148FFF76FFEF3E7C5
:1024F800C4217F48FFF76AFE52E0DD217C48FFF7E0
:1025080065FE98E0052300E000238B400343023278
:10251800794941F82230794B1A68FB4303EA0201F2
:10252800606810F4803F01D047EA0201734A1160E5
:10253800526803EA0201606810F4003F01D047EADC
:1025480002016E4A5160926803EA0201606810F461
:10255800801F01D047EA0201684A9160D26813409F
:10256800616811F4001F01D047EA0203634AD3608F
:102578000135276837FA05F300F0B5804FF00108F8
:1025880008FA05F818EA0707F2D063685A1E012A04
:1025980003D9112B01D0122B16D1E368032BA7D82E
:1025A800B268690003238B4022EA0302E3688B4088
:1025B8001343B360736823EA08086368C3F300131E
:1025C800AB4043EA08037360F2684FEA45094FF0ED
:1025D800030808FA09F86FEA080808EA0202A3687B
:1025E80003FA09F31343F3606368022B01D0122B3B
:1025F80031D1B6F1904F1AD03C4B9E4217D003F51B
:1026080080639E4213D003F580639E420FD003F58A
:1026180080639E420BD003F580639E4207D003F58A
:1026280080639E4203D0DC213148FFF7CFFD236948
:102638000F2B3FF662AFEA08083256F8220005F081
:10264800070399000F238B4020EA030023698B407E
:10265800034346F82230336808EA0308636803F046
:10266800030303FA09F343EA08033360636813F0CA
:10267800805F3FF47DAF224B1A6E42F001021A666A
:102688001B6E03F001030193019BAA08911C1A4BCE
:1026980053F8210005F0030399000F238B4020EA2B
:1026A8000300B6F1904F3FF42FAF104B9E4212D06B
:1026B80003F580639E4210D003F580639E420ED0DE
:1026C80003F580639E420CD003F580639E423FF47D
:1026D80019AF062319E7012317E7022315E7032398
:1026E80013E7042311E703B0BDE8F08300040048B2
:1026F8009C46000800001110000001400004014041
:102708000010024070B5054614460E4621B1012C52
:1027180008D86CB9AE6270BD40F29D110548FFF74C
:1027280055FDF4E74FF4CF710248FFF74FFDF0E78E
:10273800AE61F0E79C4600087047000008B5054BFD
:102748005B69034200D108BD024B5861FFF7F4FFF3
:10275800F9E700BF000401402DE9F8430446426848
:102768009E4B9A4200F2A380A368B3F1805F04D025
:102778001BB1B3F5805F40F0A0802268984B9A4265
:1027880000F0A180E368B3F5805F07D033B1B3F5FB
:10279800405F03D0B3F5005F40F0A380236A1BB10C
:1027A800B3F5006F40F0A380236933B1B3F5806FB0
:1027B80003D0B3F5C06F40F0A080636933F00C021A
:1027C80000D123B940F649318648FFF7FFFCA369D9
:1027D8004BB1B3F5807F06D0B3F5007F03D0B3F5D6
:1027E800407F40F09080E3691BB1B3F5004F40F0A3
:1027F8009080636A0B2B00F29280A36822691343CE
:1028080062691343E2691343626E134321680868DF
:10281800754A02401A430A602268536823F44053F9
:10282800E1680B435360A16922686D4B9A4201D05D
:10283800236A1943936823F06E4323F430630B43F0
:1028480093602268D36A23F00F03616A0B43D36253
:102858002368664A934268D0654A934279D0654AAC
:10286800934200F08F80644A934200F0A180634A4B
:10287800934200F0C5805A4A934200F0DA80102251
:1028880057498B4200F0FA80E369B3F5004F00F036
:102898003A81082A00F2A681DFE812F06B018D0167
:1028A8006901A4019001A401A401A401930140F6C7
:1028B8003C314C48FFF78AFC56E740F63D31494821
:1028C800FFF784FC59E7E368002B3FF46DAFB3F5DD
:1028D800005F3FF469AF4FF434614248FFF776FC7C
:1028E80062E740F644313F48FFF770FC56E740F690
:1028F80045313C48FFF76AFC56E740F6483139480D
:10290800FFF764FC59E740F64A313648FFF75EFCAA
:1029180069E740F64B313348FFF758FC69E740F662
:102928004C313048FFF752FC67E702F55842D2F8BD
:10293800882002F00302032A09D8DFE802F0020423
:10294800930601229CE704229AE7082298E71022BE
:1029580096E702F5E632D2F8882002F00C020C2A3B
:102968000ED8DFE802F0070D0D0D090D0D0D810DD4
:102978000D0D0B00002283E7042281E708227FE780
:1029880010227DE702F5E432D2F8882002F0300206
:10299800102A09D005D9202A68D0302A06D1082261
:1029A8006EE71AB900226BE7042269E7102267E78D
:1029B80002F5E232D2F8882002F0C002402A09D09B
:1029C80005D9802A54D0C02A06D1082258E71AB956
:1029D800002255E7042253E7102251E7301A1E015E
:1029E80000800040D4460008F369FFCF003801405A
:1029F8000044004000480040004C004000500040A7
:102A080002F5E032D2F8882002F44072B2F5807FF5
:102A18000BD007D9B2F5007F2CD0B2F5407F06D194
:102A280008222DE71AB900222AE7042228E71022F3
:102A380026E702F5C832D2F8882002F44062B2F5DF
:102A4800806F0BD007D9B2F5006F15D0B2F5406F83
:102A580006D1082214E71AB9002211E704220FE769
:102A680010220DE702220BE7022209E7022207E7FC
:102A7800022205E7022203E7022201E7082A00F200
:102A8800A380DFE802F008A110A10DA1A1A1050013
:102A98004FF4004008E001F037F928B9002080E041
:102AA80000F08AFFF9E75248626A524B33F8122065
:102AB800B0FBF2F3656805EB4501994200F28680A8
:102AC800B3EB053F00F284804FF0000892B2002378
:102AD8004146FDF785FC0F0247EA106706026808C1
:102AE8002A46434616EB000847F100094046494686
:102AF800FDF776FCA0F540723F4B9A426AD82368EE
:102B0800D86000204DE0082A66D8DFE802F00727E1
:102B180005652A6565652D00354803E001F0F4F880
:102B280000285BD0626A334B33F81230B0FBF3F005
:102B38006268530803EB4003B3FBF2F39BB2A3F1C3
:102B480010014FF6EF7291424AD823F00F02C3F3F7
:102B5800420313432268D360002022E001F0E6F824
:102B6800DEE700F029FFDBE74FF40040DAE7204812
:102B780002E001F0C9F8B8B3626A1E4B33F81230AC
:102B8800B0FBF3F0636800EB5300B0FBF3F080B2E6
:102B9800A0F110024FF6EF739A4227D82368D86045
:102BA80000200123A4F86A30A4F868300023E36603
:102BB8002367BDE8F88301F0B9F8DCE700F0FCFE14
:102BC800D9E74FF40040D7E70120EAE70120E8E71A
:102BD8000120E6E70120E4E70120E2E70020E0E742
:102BE8000120DEE70120DCE70020DAE70120D8E752
:102BF8000024F4000C470008FFFC0F0010B5044641
:102C0800836AFF2B00F2A180A36A13F0010F0CD096
:102C1800E36A1BB1B3F5003F40F09D80226853681A
:102C280023F40033E16A0B435360A36A13F0020FE5
:102C38000CD0236B1BB1B3F5803F40F09280226823
:102C4800536823F48033216B0B435360A36A13F05A
:102C5800040F0CD0636B1BB1B3F5802F40F0878055
:102C68002268536823F48023616B0B435360A36A83
:102C780013F0080F0BD0A36B13B1B3F5004F7CD141
:102C88002268536823F40043A16B0B435360A36A83
:102C980013F0100F0BD0E36B13B1B3F5805F72D153
:102CA8002268936823F48053E16B0B439360A36A13
:102CB80013F0200F0BD0236C13B1B3F5005F68D16C
:102CC8002268936823F40053216C0B439360A36A32
:102CD80013F0400F28D02368434A934214D0A2F53A
:102CE8007442934210D002F5806293420CD002F5F0
:102CF8008062934208D002F58062934204D040F685
:102D08003D413A48FFF762FA636C13B1B3F5801F8F
:102D180045D12268536823F48013616C0B435360D8
:102D2800636CB3F5801F40D0A36A13F0800F0BD0FB
:102D3800E36C13B1B3F5002F50D12268536823F424
:102D48000023E16C0B43536010BD40F60E41274849
:102D5800FFF73CFA58E740F613412448FFF736FAE4
:102D68005CE740F61A412148FFF730FA67E740F67A
:102D780021411E48FFF72AFA72E740F628411B480E
:102D8800FFF724FA7CE740F62F411848FFF71EFAB0
:102D980086E740F636411548FFF718FA90E740F6FF
:102DA8003E411248FFF712FAB3E7A36C43B1B3F5FB
:102DB800001F05D0B3F5800F02D0B3F5C00F07D1BF
:102DC8002268536823F4C003A16C0B435360ABE73C
:102DD80040F643410548FFF7F9F9F1E740F64B4162
:102DE8000248FFF7F3F9A8E700380140D446000885
:102DF8002DE9F04104460F4616469846069D23687D
:102E0800DB6937EA03030CBF01230023B3423FD138
:102E1800B5F1FF3FF3D000F06DFAA0EB0800A8422F
:102E280022D80DB323681A6812F0040FE7D0DA69C4
:102E380012F4006FE3D04FF400621A62226813683C
:102E480023F4D07313602268936823F0010393601E
:102E58002023C4F88030C4F88430C4F888300023B4
:102E680084F87C30032014E02268136823F4D073BC
:102E780013602268936823F0010393602023C4F849
:102E88008030C4F88430002384F87C30032000E0CC
:102E98000020BDE8F08130B583B004460023C0F8B7
:102EA800883000F027FA054623681B6813F0080FDE
:102EB8000ED123681B6813F0040F17D12023C4F820
:102EC8008030C4F88430002084F87C0003B030BD22
:102ED8006FF07E430093034600224FF40011204612
:102EE800FFF786FF0028E4D00320EFE76FF07E436A
:102EF80000932B4600224FF480012046FFF778FF0D
:102F08000028DBD00320E1E7002870D010B5044684
:102F18008369002B43D00368364A934218D0A2F540
:102F28007442934214D002F58062934210D002F5A5
:102F3800806293420CD002F58062934208D002F579
:102F48004052934204D040F235112B48FFF73EF926
:102F5800D4F88030002B40D02423C4F88030226875
:102F6800136823F0010313602046FFF7F5FB0128DF
:102F780014D0A36A002B36D12268536823F49043F7
:102F880053602268936823F02A03936022681368C9
:102F980043F0010313602046FFF77DFF10BD03686F
:102FA800144A9342D4D0A2F574429342D0D002F589
:102FB80080629342CCD002F580629342C8D002F579
:102FC80080629342C4D002F540529342C0D04FF47D
:102FD8009D710948FFF7FAF8BAE784F87C30204673
:102FE800FFF7C8F9B8E72046FFF708FEC4E7012055
:102FF800704700BF00380140D446000810B485B0BF
:1030080002461A4B93E8030004AC04E903006C463B
:10301800083393E8030084E80300536EFBB111689A
:103028008B68C3F34263886804A901EB507010F8F9
:10303800081CC90010F8100C91FBF0F1A2F86A10F6
:1030480004A90B4413F8081CC90013F8103C91FBA1
:10305800F3F3A2F8683005B05DF8044B704701231C
:10306800A2F86A30A2F86830F5E700BF8846000881
:1030780010B5044603681D4A934218D0A2F574425D
:10308800934214D002F58062934210D002F5806218
:1030980093420CD002F58062934208D002F5405268
:1030A800934204D040F211211148FFF78FF894F8A9
:1030B8007C30012B17D0012384F87C302423C4F8FA
:1030C800803022681368116821F00101116023F033
:1030D800005300206066226813602023C4F8803003
:1030E80084F87C0010BD0220FCE700BF00380140D6
:1030F8002447000870B504460D4603682A4A9342DF
:1031080018D0A2F57442934214D002F5806293421B
:1031180010D002F5806293420CD002F5806293428F
:1031280008D002F54052934204D040F23F211F4894
:10313800FFF74CF875B1B5F1005F0BD0B5F1804FD2
:1031480008D0B5F1C04F05D0B5F1004F02D0B5F1A8
:10315800204F21D194F87C30012B23D0012384F80F
:103168007C302423C4F8803023681E681A6822F053
:1031780001021A602368996821F060412943996027
:103188002046FFF73BFF23681E602023C4F88030E9
:10319800002084F87C0070BD4FF410710348FFF7DD
:1031A80015F8D7E70220F6E7003801402447000861
:1031B80070B504460D4603682A4A934218D0A2F512
:1031C8007442934214D002F58062934210D002F503
:1031D800806293420CD002F58062934208D002F5D7
:1031E8004052934204D04FF41C711F48FEF7EEFF83
:1031F80075B1B5F1007F0BD0B5F1806F08D0B5F18E
:10320800C06F05D0B5F1006F02D0B5F1206F21D1A4
:1032180094F87C30012B23D0012384F87C302423BC
:10322800C4F8803023681E681A6822F001021A6008
:103238002368996821F06061294399602046FFF767
:10324800DDFE23681E602023C4F88030002084F847
:103258007C0070BD40F271210348FEF7B7FFD7E745
:103268000220F6E70038014024470008104B1B688D
:103278000BB90120704710B504464FF47A70B0FBC3
:10328800F3F30C4A1068B0FBF3F001F07DF968B96C
:103298000F2C01D901200AE0002221464FF0FF300F
:1032A80001F014F9044B1C60002000E0012010BD5F
:1032B80040080020480800204408002010B50320DA
:1032C80001F0E6F80020FFF7D1FF10B101242046F5
:1032D80010BD0446FFF792F8F9E70000034A1368A7
:1032E800034909680B441360704700BF2C0900208C
:1032F80040080020014B1868704700BF2C090020C7
:1033080038B50446FFF7F6FF0546B4F1FF3F02D093
:10331800044B1B681C44FFF7EDFF401BA042FAD387
:1033280038BD00BF40080020124AD36803F00303E9
:10333800D068C0F303100130032B11D00E4BB3FB40
:10334800F0F30C4AD068C0F3062000FB03F0094BE9
:10335800DB68C3F3416301335B00B0FBF3F07047F4
:10336800064BB3FBF0F3D068C0F3062000FB03F074
:10337800EDE700BF001002400024F40000366E01A3
:10338800002800F0098370B582B00446036813B1C1
:1033980013F02F0F38D0236813F0010F4BD0636858
:1033A8002BB1B3F5803F02D0B3F5A02F32D1B24A8A
:1033B800936803F00C03D26802F003020C2B2FD0A1
:1033C800082B2FD06368B3F5803F63D0B3F5A02FE7
:1033D80066D0A94B1A6822F480321A601A6822F45F
:1033E80080221A606368002B67D0FFF783FF0546C9
:1033F800A14B1B6813F4003F1DD1FFF77BFF401B57
:103408006428F5D90320D0E240F243119B48FEF727
:10341800DDFEC0E740F249119848FEF7D7FEC6E73F
:10342800032ACDD1944B1B6813F4003F03D0636883
:10343800002B00F0B382236813F0020F72D0E36808
:1034480013B1B3F5807F47D123697F2B4AD88A4AC5
:10345800936803F00C03D26802F003020C2B47D0E8
:10346800042B47D0E368002B00F08680824A13685B
:1034780043F480731360FFF73DFF05467E4B1B68DE
:1034880013F4806F6FD1FFF735FF401B0228F5D981
:1034980003208AE2784A136843F480331360A1E773
:1034A80003F18043A3F53C331A6842F480221A6082
:1034B8001A6842F480321A6094E7FFF71BFF05464A
:1034C8006D4B1B6813F4003FB5D0FFF713FF401B8B
:1034D8006428F5D9032068E24FF4BF716748FEF706
:1034E80075FEB1E740F27F116448FEF76FFEAEE764
:1034F800022AB5D1604B1B6813F4806F03D0E368D0
:10350800002B00F04D825C4A536823F0FE4321698A
:1035180043EA016353605A4B1868FFF7A7FE002877
:1035280040F04082236813F0080F56D06369012BDE
:1035380036D86369002B39D04F4AD2F8943043F01B
:103548000103C2F89430FFF7D5FE05464A4BD3F87D
:10355800943013F0020F40D1FFF7CCFE401B022835
:10356800F4D9032021E2444A536823F0FE43216939
:1035780043EA01635360D5E73F4A136823F4807335
:103588001360FFF7B7FE05463B4B1B6813F4806FCB
:10359800C8D0FFF7AFFE401B0228F5D9032004E28C
:1035A8004FF4E3713548FEF711FEC2E7324AD2F80C
:1035B800943023F00103C2F89430FFF79BFE0546D0
:1035C8002D4BD3F8943013F0020F06D0FFF792FE7C
:1035D800401B0228F4D90320E7E1236813F0040F05
:1035E80000F08F80A368012B01D9052B3BD1224B1A
:1035F8009B6D13F0805F3CD11F4B9A6D42F0805257
:103608009A659B6D03F080530193019B01251D4B27
:103618001B6813F4807F37D0A368012B48D0052B93
:103628004ED0154BD3F8902022F00102C3F8902019
:10363800D3F8902022F00402C3F89020A368002B4E
:103648004CD0FFF757FE06460B4BD3F8903013F0DB
:10365800020F55D1FFF74EFE801B41F28833984286
:10366800F2D90320A1E14FF4F9710448FEF7AEFD49
:10367800BDE70025CBE700BF001002406047000807
:103688004408002000700040B54A136843F4807372
:103698001360FFF72FFE0646B14B1B6813F4807FBB
:1036A800BAD1FFF727FE801B0228F5D903207CE159
:1036B800AC4AD2F8903043F00103C2F89030BDE72D
:1036C800A84BD3F8902042F00402C3F89020D3F816
:1036D800902042F00102C3F89020AFE7FFF70AFEFE
:1036E8000646A04BD3F8903013F0020F08D0FFF72E
:1036F80001FE801B41F288339842F2D9032054E13D
:10370800FDB9236813F0200F3ED0A369012B1ED802
:10371800A36913B3934AD2F8983043F00103C2F86F
:103728009830FFF7E7FD05468E4BD3F8983013F035
:10373800020F29D1FFF7DEFD401B0228F4D9032030
:1037480033E1884A936D23F080539365D9E740F2BB
:1037580039218548FEF73AFDDAE7824AD2F89830EF
:1037680023F00103C2F89830FFF7C4FD05467D4BEE
:10377800D3F8983013F0020F06D0FFF7BBFD401BBB
:103788000228F4D9032010E1E369022B45D8E36944
:10379800002B00F00981734A926802F00C020C2A8F
:1037A80000F0B980022B40F09680236A1BB1022BEF
:1037B80001D0032B37D1636A013B0F2B39D8A36A99
:1037C800083B772B3BD8E36A023B1D2B3DD8236B84
:1037D800022B05D0042B03D0062B01D0082B3AD19D
:1037E800636B022B05D0042B03D0062B01D0082BCA
:1037F80037D15C4A136823F080731360FFF77AFDB2
:103808000546584B1B6813F0007F30D0FFF772FD58
:10381800401B0228F5D90320C7E040F26221524834
:10382800FEF7D4FCB3E74FF41B714F48FEF7CEFC0C
:10383800C1E740F26D214C48FEF7C8FCBFE740F2F3
:103848006E214948FEF7C2FCBDE740F26F214648A9
:10385800FEF7BCFCBBE74FF41C714348FEF7B6FC0F
:10386800BEE740F271214048FEF7B0FCC1E73D4A8F
:10387800D3683E491940236A606A013843EA001355
:10388800A06A43EA0023206B4008013843EA40530A
:10389800606B4008013843EA4063E06A43EAC0636A
:1038A8000B43D360136843F080731360D36843F00D
:1038B8008073D360FFF71EFD04462A4B1B6813F084
:1038C800007F06D1FFF716FD001B0228F5D903205B
:1038D8006BE0002069E0234B1A6822F080721A60BE
:1038E800DA6822F00302DA60DA6822F0887222F4D9
:1038F8008032DA60FFF7FEFC04461A4B1B6813F0AF
:10390800007F06D0FFF7F6FC001B0228F5D903203C
:103918004BE0002049E0012B49D0124BDB6803F053
:103928000301226A914201D001203EE003F0F00237
:10393800616A0139B2EB011F01D0012035E003F4BF
:10394800FE42A16AB2EB012F01D001202DE003F065
:103958007842E16AB2EBC16F0AD0012025E000BFCE
:103968000070004000100240604700080C809F0172
:1039780003F4C001226B5208013AB1EB425F01D057
:10398800012012E003F0C063626B5208013AB3EB06
:10399800426F0ED0012008E001207047012004E0AA
:1039A800012002E0012000E0002002B070BD0120EB
:1039B800FBE70020F9E700BF1E4B9B6803F00C03F0
:1039C800042B33D01B4B9B6803F00C03082B2FD020
:1039D800184B9B6803F00C030C2B01D00020704798
:1039E800144BDA6802F00302DB68C3F303130133F4
:1039F800032A11D11048B0FBF3F30E4AD068C0F384
:103A0800062000FB03F00B4BDB68C3F34163013373
:103A18005B00B0FBF3F070470848B0FBF3F3054ACE
:103A2800D068C0F3062000FB03F0ECE703487047BA
:103A3800014870470010024000366E010024F4006F
:103A4800002800F04881F8B504460D46036813F0D5
:103A58000F0F02D033F00F0304D040F20A31A04810
:103A6800FEF7B4FB0F2D12D89E4B1B6803F00F0313
:103A7800AB4212D29B4A136823F00F032B43136007
:103A8800136803F00F03AB4207D00120F0E040F2C7
:103A98000B319348FEF79AFBE6E7236813F0010F12
:103AA8006BD06368013B022B18D86368032B1BD0CB
:103AB800022B39D08C4B1B6813F4806F00F00D81FA
:103AC800FFF77AFF894B98423BD9874A936823F0DE
:103AD800F00343F080039360802733E040F2223103
:103AE8007F48FEF773FBE0E77F4B1B6813F0007F0E
:103AF80001D10120BCE0FFF717FC7C4B98421AD992
:103B0800794B9B6813F0F00F05D0236813F0020F70
:103B180013D0A3689BB9744A936823F0F00343F069
:103B28008003936080270DE06F4B1B6813F4003F00
:103B3800C6D101209CE0002704E0002702E000270E
:103B480000E00027684A936823F0030361680B4389
:103B58009360FFF7CFFB0646634B9B6803F00C03AB
:103B68006268B3EB820F09D0FFF7C4FB801B41F2F8
:103B780088339842F0D903207AE00027236813F0AD
:103B8800020F7CD013F0040F04D0574A936843F413
:103B9800E0639360236813F0080F06D0524A9368D5
:103BA80023F47C5343F4E0639360A3687BB1802BD8
:103BB8000DD0902B0BD0A02B09D0B02B07D0C02B49
:103BC80005D0D02B03D0E02B01D0F02B51D1464AA1
:103BD800936823F0F003A1680B439360414B1B6883
:103BE80003F00F03AB4252D8236813F0040F14D02C
:103BF800E3685BB1B3F5806F08D0B3F5A06F05D06B
:103C0800B3F5C06F02D0B3F5E06F58D1364A936868
:103C180023F4E063E1680B439360236813F0080F13
:103C280015D023695BB1B3F5806F08D0B3F5A06FE9
:103C380005D0B3F5C06F02D0B3F5E06F45D12A4A7D
:103C4800936823F46053216943EAC1039360FFF743
:103C5800B3FE254B9B68C3F30313254AD35C03F0DB
:103C68001F03D840234B1860234B1868FFF7FEFA50
:103C7800F8BD40F279311A48FEF7A8FAA7E7002FF5
:103C8800ACD0194A936823F0F0039360A6E7154A6D
:103C9800136823F00F032B431360FFF72BFB064633
:103CA800104B1B6803F00F03AB429DD0FFF722FBBC
:103CB800801B41F288339842F2D90320D8E740F2BA
:103CC8009B310748FEF782FAA0E740F2A231044888
:103CD800FEF77CFAB3E7012070470120C8E700BF70
:103CE80060470008002002400010024000B4C404ED
:103CF800404800084808002044080020014B186884
:103D0800704700BF4808002008B5FFF7F7FF054BCC
:103D18009B68C3F30223044AD35C03F01F03D84013
:103D280008BD00BF001002405048000808B5FFF762
:103D3800E5FF054B9B68C3F3C223044AD35C03F039
:103D48001F03D84008BD00BF0010024050480008BB
:103D5800F0B583B004460368C3F31303002B33D0D4
:103D6800236813F4002F00F08580236D43B1B3F569
:103D7800807F05D0B3F5007F02D0B3F5407F28D10E
:103D8800394B9B6D13F0805F28D1374B9A6D42F009
:103D980080529A659B6D03F080530193019B012625
:103DA800324A136843F480731360FFF7A3FA054699
:103DB8002E4B1B6813F4807F12D1FFF79BFA401B30
:103DC8000228F5D903250CE085212948FEF7FEF9DC
:103DD800C6E78D212648FEF7F9F9D1E70026DFE787
:103DE800002545BB204BD3F8903013F4407315D011
:103DF800226D9A4212D01C4AD2F8903023F44073B4
:103E0800D2F8901041F48031C2F89010D2F8901096
:103E180021F48031C2F89010C2F8903013F0010FED
:103E280010D145B9104AD2F8903023F44073216D6F
:103E38000B43C2F89030F6B10B4A936D23F08053D0
:103E4800936518E0FFF756FA0746074BD3F890300A
:103E580013F0020FE5D1FFF74DFAC01B41F288338A
:103E68009842F2D90325DCE70010024000700040B8
:103E7800984700080025236813F0010F10D06368E5
:103E8800012B04D9032B02D0022B40F0C781B64A7C
:103E9800D2F8883023F0030361680B43C2F88830F6
:103EA800236813F0020F11D0A36833B1042B04D098
:103EB8000C2B02D0082B40F0B681AB4AD2F88830E0
:103EC80023F00C03A1680B43C2F88830236813F071
:103ED800040F11D0E36833B1102B04D0302B02D07B
:103EE800202B40F0A581A04AD2F8883023F0300377
:103EF800E1680B43C2F88830236813F0080F11D02B
:103F0800236933B1402B04D0C02B02D0802B40F062
:103F18009481954AD2F8883023F0C00321690B4375
:103F2800C2F88830236813F0100F14D063694BB1BE
:103F3800B3F5807F06D0B3F5407F03D0B3F5007F9B
:103F480040F08181884AD2F8883023F4407361694F
:103F58000B43C2F88830236813F0200F14D0A369EC
:103F68004BB1B3F5806F06D0B3F5406F03D0B3F50E
:103F7800006F40F06E817C4AD2F8883023F44063A9
:103F8800A1690B43C2F88830236813F0400F11D0A1
:103F9800E36933B1B3F5805F03D0B3F5005F40F058
:103FA8005E81714AD2F8883023F44053E1690B43AB
:103FB800C2F88830236813F0800F11D0236A33B118
:103FC800B3F5804F03D0B3F5004F40F04E81664AF9
:103FD800D2F8883023F44043216A0B43C2F8883072
:103FE800236813F4807F11D0636A33B1B3F5803F3F
:103FF80003D0B3F5003F40F03E815B4AD2F88830E9
:1040080023F44033616A0B43C2F88830236813F401
:10401800003F0CD0A36A022B00F23381524AD2F837
:104028009C3023F00303A16A0B43C2F89C30236839
:1040380013F4007F14D0E36A4BB1B3F5802F06D098
:10404800B3F5002F03D0B3F5402F40F02081464A46
:10405800D2F8883023F44023E16A0B43C2F8883051
:10406800236813F4806F19D0236B4BB1B3F5801F0D
:1040780006D0B3F5001F03D0B3F5401F40F00D8103
:10408800394AD2F8883023F44013216B0B43C2F825
:104098008830236BB3F5801F00F00581236813F483
:1040A800006F19D0636B4BB1B3F5800F06D0B3F531
:1040B800000F03D0B3F5400F40F0FA802A4AD2F837
:1040C800883023F44003616B0B43C2F88830636B7C
:1040D800B3F5800F00F0F280236813F4805F16D0E8
:1040E800A36B33B1B3F1807F03D0B3F1007F40F00D
:1040F800EA801D4AD2F8883023F04073A16B0B4345
:10410800C2F88830A36BB3F1807F00F0E2802368A7
:1041180013F4005F13D0E36B1BB1B3F1006F40F0F1
:10412800DD80114AD2F8883023F04063E16B0B43FD
:10413800C2F88830E36BB3F1006F00F0D5802368D4
:1041480013F4804F16D0236C1BB1B3F1006F40F00D
:10415800D080054AD2F8883023F04063216C0B43A5
:10416800C2F88830236C01E000100240B3F1006F00
:1041780000F0C580236813F4004F16D0636C33B188
:10418800B3F1805F03D0B3F1005F40F0BD806F4AA8
:10419800D2F8883023F04053616C0B43C2F8883062
:1041A800636CB3F1805F00F0B580236813F4803F3F
:1041B80016D0A36C33B1B3F1804F03D0B3F1004FE5
:1041C80040F0AD80614AD2F8883023F04043A16CBA
:1041D8000B43C2F88830A36CB3F1804F00F0A58080
:1041E800236813F4802F16D0E36CB3F5801F04D036
:1041F8001BB1B3F5001F40F09D80544AD2F89C30A3
:1042080023F44013E16C0B43C2F89C30E36CB3F524
:10421800001F00F09580284603B0F0BDE2214C480D
:10422800FDF7D4FF33E6EC214948FDF7CFFF44E61C
:10423800F6214748FDF7CAFF55E640F20111444808
:10424800FDF7C4FF65E64FF487714148FDF7BEFFEF
:1042580078E64FF48D713E48FDF7B8FF8BE64FF4D2
:1042680092713B48FDF7B2FF9BE64FF497713848CF
:10427800FDF7ACFFABE64FF49C713548FDF7A6FFA0
:10428800BBE64FF4A2713248FDF7A0FFC6E64FF433
:10429800A8712F48FDF79AFFD9E64FF4AD712C4865
:1042A800FDF794FFECE6D36843F48013D360F5E69A
:1042B8004FF4B5712648FDF789FFFFE6D36843F44C
:1042C8008013D36008E740F27B112148FDF77EFF99
:1042D8000FE7D36843F48013D36018E740F28D11D9
:1042E8001B48FDF773FF1CE7D36843F48013D360C2
:1042F80025E74FF4CE711648FDF768FF29E7D36824
:1043080043F48013D36035E74FF4D5711048FDF7B7
:104318005DFF3CE7D36843F48033D36045E740F260
:10432800BB110B48FDF752FF4CE7D36843F48033C9
:10433800D36055E74FF4E7710548FDF747FF5CE7A1
:10434800D36843F48013D36065E700BF00100240D0
:104358009847000810B5044628B1B0F5007F02D090
:10436800B0F5806F11D1002C3DD1414B1B6803F48F
:10437800C063B3F5806F0DD03D4AD2F8803023F486
:104388008073C2F88030002038E09E213948FDF75C
:104398001DFFE8E7364AD2F8803023F48073C2F86C
:1043A8008030136823F4C06343F400731360324B06
:1043B8001A68322303FB02F3304AA2FB03239B0C47
:1043C800013300E0013B2A4A526912F4806F01D0A0
:1043D800002BF7D1264B5B6913F4806F01D10020C5
:1043E8000CE003200AE0B4F5007F08D0204A1368E7
:1043F80023F4C06343F480631360002010BD1C4B9A
:104408001B6803F4C063B3F5806F08D0184AD2F86C
:10441800803043F48073C2F880300020EEE7144AFD
:10442800D2F8803043F48073C2F88030136823F4E4
:10443800C06343F4007313600F4B1A68322303FB05
:1044480002F30E4AA2FB03239B0C013300E0013B5D
:10445800074A526912F4806F01D0002BF7D1044B40
:104468005B6913F4806F01D10020C7E70320C5E71B
:1044780000700040D04700084808002083DE1B4336
:10448800024A936843F48043936070470070004089
:1044980010B50446C31E042B0FD80A4AD36823F468
:1044A800E0631B041B0C240204F4E064234343F080
:1044B800BF6343F40033D36010BDA7210248FDF762
:1044C80085FEEAE700ED00E00848000870B50546FB
:1044D8000C4616460F2A25D80F2C28D81B4BDB680C
:1044E800C3F30223C3F10702042A28BF0422191DBB
:1044F800062921D9033B4FF0FF3101FA02F224EAE1
:1045080002049C4001FA03F326EA03063443002D13
:1045180014DB2401E4B205F1604505F5614585F831
:10452800004370BDBF210A48FDF750FED4E7C02103
:104538000748FDF74BFED1E70023DCE705F00F0540
:104548002401E4B2034B5C55EBE700BF00ED00E04B
:104558000848000814ED00E010B5041E0ADB002C22
:1045680007DB04F01F02640901239340044A42F860
:10457800243010BDD3210348FDF728FEEFE700BF24
:1045880000E100E0084800080138B0F1807F0AD255
:10459800064B5860064AF02182F8231000209860E4
:1045A80007221A6070470120704700BF10E000E042
:1045B80000ED00E0054BD3F8882042F47002C3F800
:1045C80088204FF000629A60704700BF00ED00E05D
:1045D80008B5012220214FF09040FEF793F84FF4E0
:1045E8009670FEF78DFE002220214FF09040FEF7D6
:1045F80089F84FF49670FEF783FE012008BD00008D
:104608000D4885460D480E490E4A002302E0D4584D
:10461800C4500433C4188C42F9D30B4A0B4C002302
:1046280001E013600432A242FBD3FFF7C3FFFBF79C
:1046380033FEFDF7A8FDFEE7000002200000002081
:104648004C080020504900084C080020340900207C
:10465800FEE70000024B13B10248FBF7FDBD7047AF
:10466800000000006D020008F8B500BFF8BC08BCE7
:104678009E467047F8B500BFF8BC08BC9E46704718
:1046880001010103070100000804020408010101F7
:1046980008000020447269766572732F53544D33B5
:1046A80032473478785F48414C5F44726976657266
:1046B8002F5372632F73746D3332673478785F6861
:1046C800616C5F6770696F2E6300000044726976E1
:1046D8006572732F53544D3332473478785F4841AD
:1046E8004C5F4472697665722F5372632F73746DD1
:1046F8003332673478785F68616C5F756172742EE5
:1047080063000000010002000400060008000A001F
:104718000C001000200040008000000144726976FF
:104728006572732F53544D3332473478785F48415C
:104738004C5F4472697665722F5372632F73746D80
:104748003332673478785F68616C5F756172745F63
:1047580065782E6300000000447269766572732FD5
:1047680053544D3332473478785F48414C5F447234
:10477800697665722F5372632F73746D33326734A1
:1047880078785F68616C5F7263632E630000000075
:10479800447269766572732F53544D3332473478B7
:1047A800785F48414C5F4472697665722F53726333
:1047B8002F73746D3332673478785F68616C5F7219
:1047C80063635F65782E6300447269766572732F40
:1047D80053544D3332473478785F48414C5F4472C4
:1047E800697665722F5372632F73746D3332673431
:1047F80078785F68616C5F7077725F65782E6300A8
:10480800447269766572732F53544D333247347846
:10481800785F48414C5F4472697665722F537263C2
:104828002F73746D3332673478785F68616C5F63B7
:104838006F727465782E63000000000000000000AD
:10484800010203040607080900000000010203042E
:1048580008B10181B0B000840000000008B10181F6
:10486800B0B000840000000008B10181B0B000843D
:04487800000000003C
:10487C009CBBFF7F01000000FCBEFF7FB0A9028043
:10488C0098BFFF7FB0B0A880E8BFFF7F0100000099
:10489C00F4BFFF7FB0B0AA802CC0FF7FAE71B28096
:1048AC00ECC0FF7F01000000E8C0FF7FAB3F388009
:1048BC0040C1FF7F010000004CC1FF7FB0B0AA8057
:1048CC0088C1FF7F010000002CC2FF7FAB0EB280BD
:1048DC0094C2FF7FB0AF088060C5FF7F010000006D
:1048EC0064C5FF7FAC3F0380DCC7FF7F0100000085
:1048FC00B8C9FF7F00840480CCC9FF7F0100000091
:10490C00C8C9FF7FB0AD048084CCFF7FB0A8038002
:10491C00A4CCFF7F44FFFF7FA8CCFF7F48FFFF7F25
:10492C00B4CCFF7F01000000A4FCFF7F20FFFF7FC1
:08493C00CAFCFF7F010000002E
:084944005D4600084102000875
:04494C001902000844
:10495000080000200000000000000000F402002019
:104960005C030020C40300200000000000000000E1
:104970000000000000000000000000000000000037
:104980000000000000000000000000000000000027
:104990000000000000000000000000000000000017
:1049A0000000000000000000000000000000000007
:1049B00000000000000000000000000000000000F7
:1049C00000000000000000000000000000000000E7
:1049D00000000000000000000000000000000000D7
:1049E00000000000000000000000000000000000C7
:1049F00000000000000000000000000000000000B7
:104A000001000000000000000E33CDAB34126DE653
:104A1000ECDE05000B0000000000000000000000BC
:104A20000000000000000000000000000000000086
:104A30000000000000000000000000000000000076
:104A40000000000000000000000000000000000066
:104A50000000000000000000000000000000000056
:104D8000000000000000000030040020300400207B
:104D90003804002038040020400400204004002093
:104DA0004804002048040020500400205004002043
:104DB00058040020580400206004002060040020F3
:104DC00068040020680400207004002070040020A3
:104DD0007804002078040020800400208004002053
:104DE0008804002088040020900400209004002003
:104DF0009804002098040020A0040020A0040020B3
:104E0000A8040020A8040020B0040020B004002062
:104E1000B8040020B8040020C0040020C004002012
:104E2000C8040020C8040020D0040020D0040020C2
:104E3000D8040020D8040020E0040020E004002072
:104E4000E8040020E8040020F0040020F004002022
:104E5000F8040020F80400200005002000050020D0
:104E6000080500200805002010050020100500207E
:104E7000180500201805002020050020200500202E
:104E800028050020280500203005002030050020DE
:104E9000380500203805002040050020400500208E
:104EA000480500204805002050050020500500203E
:104EB00058050020580500206005002060050020EE
:104EC000680500206805002070050020700500209E
:104ED000780500207805002080050020800500204E
:104EE00088050020880500209005002090050020FE
:104EF0009805002098050020A0050020A0050020AE
:104F0000A8050020A8050020B0050020B00500205D
:104F1000B8050020B8050020C0050020C00500200D
:104F2000C8050020C8050020D0050020D0050020BD
:104F3000D8050020D8050020E0050020E00500206D
:104F4000E8050020E8050020F0050020F00500201D
:104F5000F8050020F80500200006002000060020CB
:104F60000806002008060020100600201006002079
:104F70001806002018060020200600202006002029
:104F800028060020280600203006002030060020D9
:104F90003806002038060020400600204006002089
:104FA0004806002048060020500600205006002039
:104FB00058060020580600206006002060060020E9
:104FC0006806002068060020700600207006002099
:104FD0007806002078060020800600208006002049
:104FE00088060020880600209006002090060020F9
:104FF0009806002098060020A0060020A0060020A9
:10500000A8060020A8060020B0060020B006002058
:10501000B8060020B8060020C0060020C006002008
:10502000C8060020C8060020D0060020D0060020B8
:10503000D8060020D8060020E0060020E006002068
:10504000E8060020E8060020F0060020F006002018
:10505000F8060020F80600200007002000070020C6
:105060000807002008070020100700201007002074
:105070001807002018070020200700202007002024
:1050800028070020280700203007002030070020D4
:105090003807002038070020400700204007002084
:1050A0004807002048070020500700205007002034
:1050B00058070020580700206007002060070020E4
:1050C0006807002068070020700700207007002094
:1050D0007807002078070020800700208007002044
:1050E00088070020880700209007002090070020F4
:1050F0009807002098070020A0070020A0070020A4
:10510000A8070020A8070020B0070020B007002053
:10511000B8070020B8070020C0070020C007002003
:10512000C8070020C8070020D0070020D0070020B3
:10513000D8070020D8070020E0070020E007002063
:10514000E8070020E8070020F0070020F007002013
:10515000F8070020F80700200008002000080020C1
:10516000080800200808002010080020100800206F
:10517000180800201808002020080020200800201F
:105180002808002028080020FFFFFFFF0000020081
:0C51900001000000100000000024F400EA
:0400000508004609A0
:00000001FF
